{
  "_format": "hh-sol-artifact-1",
  "contractName": "TourismChain",
  "sourceName": "contracts/TourismChain.sol",
  "abi": [
    {
      "inputs": [],
      "stateMutability": "nonpayable",
      "type": "constructor"
    },
    {
      "inputs": [
        {
          "internalType": "address",
          "name": "owner",
          "type": "address"
        }
      ],
      "name": "OwnableInvalidOwner",
      "type": "error"
    },
    {
      "inputs": [
        {
          "internalType": "address",
          "name": "account",
          "type": "address"
        }
      ],
      "name": "OwnableUnauthorizedAccount",
      "type": "error"
    },
    {
      "anonymous": false,
      "inputs": [
        {
          "indexed": true,
          "internalType": "string",
          "name": "orderId",
          "type": "string"
        },
        {
          "indexed": true,
          "internalType": "uint256",
          "name": "userId",
          "type": "uint256"
        },
        {
          "indexed": false,
          "internalType": "uint256",
          "name": "amount",
          "type": "uint256"
        }
      ],
      "name": "BookingCreated",
      "type": "event"
    },
    {
      "anonymous": false,
      "inputs": [
        {
          "indexed": true,
          "internalType": "uint256",
          "name": "certId",
          "type": "uint256"
        },
        {
          "indexed": true,
          "internalType": "address",
          "name": "owner",
          "type": "address"
        },
        {
          "indexed": false,
          "internalType": "string",
          "name": "itemName",
          "type": "string"
        }
      ],
      "name": "CertificateIssued",
      "type": "event"
    },
    {
      "anonymous": false,
      "inputs": [
        {
          "indexed": true,
          "internalType": "uint256",
          "name": "guideId",
          "type": "uint256"
        },
        {
          "indexed": false,
          "internalType": "bool",
          "name": "status",
          "type": "bool"
        }
      ],
      "name": "GuideVerified",
      "type": "event"
    },
    {
      "anonymous": false,
      "inputs": [
        {
          "indexed": true,
          "internalType": "address",
          "name": "previousOwner",
          "type": "address"
        },
        {
          "indexed": true,
          "internalType": "address",
          "name": "newOwner",
          "type": "address"
        }
      ],
      "name": "OwnershipTransferred",
      "type": "event"
    },
    {
      "inputs": [
        {
          "internalType": "string",
          "name": "",
          "type": "string"
        }
      ],
      "name": "bookings",
      "outputs": [
        {
          "internalType": "string",
          "name": "orderId",
          "type": "string"
        },
        {
          "internalType": "uint256",
          "name": "userId",
          "type": "uint256"
        },
        {
          "internalType": "uint256",
          "name": "guideId",
          "type": "uint256"
        },
        {
          "internalType": "uint256",
          "name": "amount",
          "type": "uint256"
        },
        {
          "internalType": "string",
          "name": "currency",
          "type": "string"
        },
        {
          "internalType": "string",
          "name": "paymentRef",
          "type": "string"
        },
        {
          "internalType": "uint256",
          "name": "timestamp",
          "type": "uint256"
        }
      ],
      "stateMutability": "view",
      "type": "function"
    },
    {
      "inputs": [
        {
          "internalType": "uint256",
          "name": "",
          "type": "uint256"
        }
      ],
      "name": "certificates",
      "outputs": [
        {
          "internalType": "uint256",
          "name": "id",
          "type": "uint256"
        },
        {
          "internalType": "string",
          "name": "itemName",
          "type": "string"
        },
        {
          "internalType": "address",
          "name": "owner",
          "type": "address"
        },
        {
          "internalType": "address",
          "name": "issuer",
          "type": "address"
        },
        {
          "internalType": "uint256",
          "name": "issueDate",
          "type": "uint256"
        },
        {
          "internalType": "string",
          "name": "metadataURI",
          "type": "string"
        }
      ],
      "stateMutability": "view",
      "type": "function"
    },
    {
      "inputs": [
        {
          "internalType": "string",
          "name": "_orderId",
          "type": "string"
        },
        {
          "internalType": "uint256",
          "name": "_userId",
          "type": "uint256"
        },
        {
          "internalType": "uint256",
          "name": "_guideId",
          "type": "uint256"
        },
        {
          "internalType": "uint256",
          "name": "_amount",
          "type": "uint256"
        },
        {
          "internalType": "string",
          "name": "_currency",
          "type": "string"
        },
        {
          "internalType": "string",
          "name": "_paymentRef",
          "type": "string"
        }
      ],
      "name": "createBooking",
      "outputs": [],
      "stateMutability": "nonpayable",
      "type": "function"
    },
    {
      "inputs": [
        {
          "internalType": "string",
          "name": "_orderId",
          "type": "string"
        }
      ],
      "name": "getBooking",
      "outputs": [
        {
          "components": [
            {
              "internalType": "string",
              "name": "orderId",
              "type": "string"
            },
            {
              "internalType": "uint256",
              "name": "userId",
              "type": "uint256"
            },
            {
              "internalType": "uint256",
              "name": "guideId",
              "type": "uint256"
            },
            {
              "internalType": "uint256",
              "name": "amount",
              "type": "uint256"
            },
            {
              "internalType": "string",
              "name": "currency",
              "type": "string"
            },
            {
              "internalType": "string",
              "name": "paymentRef",
              "type": "string"
            },
            {
              "internalType": "uint256",
              "name": "timestamp",
              "type": "uint256"
            }
          ],
          "internalType": "struct TourismChain.Booking",
          "name": "",
          "type": "tuple"
        }
      ],
      "stateMutability": "view",
      "type": "function"
    },
    {
      "inputs": [
        {
          "internalType": "uint256",
          "name": "_certId",
          "type": "uint256"
        }
      ],
      "name": "getCertificate",
      "outputs": [
        {
          "components": [
            {
              "internalType": "uint256",
              "name": "id",
              "type": "uint256"
            },
            {
              "internalType": "string",
              "name": "itemName",
              "type": "string"
            },
            {
              "internalType": "address",
              "name": "owner",
              "type": "address"
            },
            {
              "internalType": "address",
              "name": "issuer",
              "type": "address"
            },
            {
              "internalType": "uint256",
              "name": "issueDate",
              "type": "uint256"
            },
            {
              "internalType": "string",
              "name": "metadataURI",
              "type": "string"
            }
          ],
          "internalType": "struct TourismChain.Certificate",
          "name": "",
          "type": "tuple"
        }
      ],
      "stateMutability": "view",
      "type": "function"
    },
    {
      "inputs": [
        {
          "internalType": "uint256",
          "name": "_guideId",
          "type": "uint256"
        }
      ],
      "name": "getGuide",
      "outputs": [
        {
          "components": [
            {
              "internalType": "bool",
              "name": "isVerified",
              "type": "bool"
            },
            {
              "internalType": "string",
              "name": "metadataURI",
              "type": "string"
            }
          ],
          "internalType": "struct TourismChain.GuideProfile",
          "name": "",
          "type": "tuple"
        }
      ],
      "stateMutability": "view",
      "type": "function"
    },
    {
      "inputs": [
        {
          "internalType": "uint256",
          "name": "",
          "type": "uint256"
        }
      ],
      "name": "guides",
      "outputs": [
        {
          "internalType": "bool",
          "name": "isVerified",
          "type": "bool"
        },
        {
          "internalType": "string",
          "name": "metadataURI",
          "type": "string"
        }
      ],
      "stateMutability": "view",
      "type": "function"
    },
    {
      "inputs": [
        {
          "internalType": "address",
          "name": "_to",
          "type": "address"
        },
        {
          "internalType": "string",
          "name": "_itemName",
          "type": "string"
        },
        {
          "internalType": "string",
          "name": "_uri",
          "type": "string"
        }
      ],
      "name": "issueCertificate",
      "outputs": [],
      "stateMutability": "nonpayable",
      "type": "function"
    },
    {
      "inputs": [],
      "name": "owner",
      "outputs": [
        {
          "internalType": "address",
          "name": "",
          "type": "address"
        }
      ],
      "stateMutability": "view",
      "type": "function"
    },
    {
      "inputs": [],
      "name": "renounceOwnership",
      "outputs": [],
      "stateMutability": "nonpayable",
      "type": "function"
    },
    {
      "inputs": [
        {
          "internalType": "address",
          "name": "newOwner",
          "type": "address"
        }
      ],
      "name": "transferOwnership",
      "outputs": [],
      "stateMutability": "nonpayable",
      "type": "function"
    },
    {
      "inputs": [
        {
          "internalType": "uint256",
          "name": "_guideId",
          "type": "uint256"
        },
        {
          "internalType": "bool",
          "name": "_status",
          "type": "bool"
        },
        {
          "internalType": "string",
          "name": "_uri",
          "type": "string"
        }
      ],
      "name": "verifyGuide",
      "outputs": [],
      "stateMutability": "nonpayable",
      "type": "function"
    }
  ],
  "bytecode": "0x608060405234801561001057600080fd5b5033600073ffffffffffffffffffffffffffffffffffffffff168173ffffffffffffffffffffffffffffffffffffffff16036100845760006040517f1e4fbdf700000000000000000000000000000000000000000000000000000000815260040161007b91906101a5565b60405180910390fd5b610093816100a060201b60201c565b50600180819055506101c0565b60008060009054906101000a900473ffffffffffffffffffffffffffffffffffffffff169050816000806101000a81548173ffffffffffffffffffffffffffffffffffffffff021916908373ffffffffffffffffffffffffffffffffffffffff1602179055508173ffffffffffffffffffffffffffffffffffffffff168173ffffffffffffffffffffffffffffffffffffffff167f8be0079c531659141344cd1fd0a4f28419497f9722a3daafe3b4186f6b6457e060405160405180910390a35050565b600073ffffffffffffffffffffffffffffffffffffffff82169050919050565b600061018f82610164565b9050919050565b61019f81610184565b82525050565b60006020820190506101ba6000830184610196565b92915050565b611f0d806101cf6000396000f3fe608060405234801561001057600080fd5b50600436106100b45760003560e01c80638da5cb5b116100715780638da5cb5b146101ab5780639624493f146101c9578063be2ac414146101f9578063cf960c0a14610215578063e98ac4d814610245578063f2fde38b14610261576100b4565b80632660c59e146100b957806331086cee146100d5578063502bf35e1461010657806351640fee1461013c578063663b3e221461016c578063715018a6146101a1575b600080fd5b6100d360048036038101906100ce9190611385565b61027d565b005b6100ef60048036038101906100ea9190611466565b610391565b6040516100fd92919061152d565b60405180910390f35b610120600480360381019061011b919061155d565b61044a565b60405161013397969594939291906115b5565b60405180910390f35b61015660048036038101906101519190611466565b61063a565b6040516101639190611763565b60405180910390f35b61018660048036038101906101819190611466565b61084b565b60405161019896959493929190611794565b60405180910390f35b6101a96109d7565b005b6101b36109eb565b6040516101c09190611803565b60405180910390f35b6101e360048036038101906101de919061155d565b610a14565b6040516101f091906118c8565b60405180910390f35b610213600480360381019061020e9190611916565b610c2a565b005b61022f600480360381019061022a9190611466565b610cd2565b60405161023c91906119d1565b60405180910390f35b61025f600480360381019061025a9190611a1f565b610dac565b005b61027b60048036038101906102769190611aaa565b610f61565b005b6040518060e00160405280878152602001868152602001858152602001848152602001838152602001828152602001428152506003876040516102c09190611b13565b908152602001604051809103902060008201518160000190816102e39190611d36565b5060208201518160010155604082015181600201556060820151816003015560808201518160040190816103179190611d36565b5060a082015181600501908161032d9190611d36565b5060c08201518160060155905050848660405161034a9190611b13565b60405180910390207f2d4a42936955b3b589c103037394c2c70e30429b57379c36328bb51a9d3bae0a856040516103819190611e08565b60405180910390a3505050505050565b60026020528060005260406000206000915090508060000160009054906101000a900460ff16908060010180546103c790611b59565b80601f01602080910402602001604051908101604052809291908181526020018280546103f390611b59565b80156104405780601f1061041557610100808354040283529160200191610440565b820191906000526020600020905b81548152906001019060200180831161042357829003601f168201915b5050505050905082565b60038180516020810182018051848252602083016020850120818352809550505050505060009150905080600001805461048390611b59565b80601f01602080910402602001604051908101604052809291908181526020018280546104af90611b59565b80156104fc5780601f106104d1576101008083540402835291602001916104fc565b820191906000526020600020905b8154815290600101906020018083116104df57829003601f168201915b50505050509080600101549080600201549080600301549080600401805461052390611b59565b80601f016020809104026020016040519081016040528092919081815260200182805461054f90611b59565b801561059c5780601f106105715761010080835404028352916020019161059c565b820191906000526020600020905b81548152906001019060200180831161057f57829003601f168201915b5050505050908060050180546105b190611b59565b80601f01602080910402602001604051908101604052809291908181526020018280546105dd90611b59565b801561062a5780601f106105ff5761010080835404028352916020019161062a565b820191906000526020600020905b81548152906001019060200180831161060d57829003601f168201915b5050505050908060060154905087565b61064261113a565b600460008381526020019081526020016000206040518060c00160405290816000820154815260200160018201805461067a90611b59565b80601f01602080910402602001604051908101604052809291908181526020018280546106a690611b59565b80156106f35780601f106106c8576101008083540402835291602001916106f3565b820191906000526020600020905b8154815290600101906020018083116106d657829003601f168201915b505050505081526020016002820160009054906101000a900473ffffffffffffffffffffffffffffffffffffffff1673ffffffffffffffffffffffffffffffffffffffff1673ffffffffffffffffffffffffffffffffffffffff1681526020016003820160009054906101000a900473ffffffffffffffffffffffffffffffffffffffff1673ffffffffffffffffffffffffffffffffffffffff1673ffffffffffffffffffffffffffffffffffffffff168152602001600482015481526020016005820180546107c290611b59565b80601f01602080910402602001604051908101604052809291908181526020018280546107ee90611b59565b801561083b5780601f106108105761010080835404028352916020019161083b565b820191906000526020600020905b81548152906001019060200180831161081e57829003601f168201915b5050505050815250509050919050565b600460205280600052604060002060009150905080600001549080600101805461087490611b59565b80601f01602080910402602001604051908101604052809291908181526020018280546108a090611b59565b80156108ed5780601f106108c2576101008083540402835291602001916108ed565b820191906000526020600020905b8154815290600101906020018083116108d057829003601f168201915b5050505050908060020160009054906101000a900473ffffffffffffffffffffffffffffffffffffffff16908060030160009054906101000a900473ffffffffffffffffffffffffffffffffffffffff169080600401549080600501805461095490611b59565b80601f016020809104026020016040519081016040528092919081815260200182805461098090611b59565b80156109cd5780601f106109a2576101008083540402835291602001916109cd565b820191906000526020600020905b8154815290600101906020018083116109b057829003601f168201915b5050505050905086565b6109df610fe7565b6109e9600061106e565b565b60008060009054906101000a900473ffffffffffffffffffffffffffffffffffffffff16905090565b610a1c61119c565b600382604051610a2c9190611b13565b90815260200160405180910390206040518060e0016040529081600082018054610a5590611b59565b80601f0160208091040260200160405190810160405280929190818152602001828054610a8190611b59565b8015610ace5780601f10610aa357610100808354040283529160200191610ace565b820191906000526020600020905b815481529060010190602001808311610ab157829003601f168201915b50505050508152602001600182015481526020016002820154815260200160038201548152602001600482018054610b0590611b59565b80601f0160208091040260200160405190810160405280929190818152602001828054610b3190611b59565b8015610b7e5780601f10610b5357610100808354040283529160200191610b7e565b820191906000526020600020905b815481529060010190602001808311610b6157829003601f168201915b50505050508152602001600582018054610b9790611b59565b80601f0160208091040260200160405190810160405280929190818152602001828054610bc390611b59565b8015610c105780601f10610be557610100808354040283529160200191610c10565b820191906000526020600020905b815481529060010190602001808311610bf357829003601f168201915b505050505081526020016006820154815250509050919050565b610c32610fe7565b60405180604001604052808315158152602001828152506002600085815260200190815260200160002060008201518160000160006101000a81548160ff0219169083151502179055506020820151816001019081610c919190611d36565b50905050827f5d82215e8f4129d441800af5ac2882b7f3943e9e13682f2cc322d03d3cef4c7b83604051610cc59190611e23565b60405180910390a2505050565b610cda6111d9565b600260008381526020019081526020016000206040518060400160405290816000820160009054906101000a900460ff16151515158152602001600182018054610d2390611b59565b80601f0160208091040260200160405190810160405280929190818152602001828054610d4f90611b59565b8015610d9c5780601f10610d7157610100808354040283529160200191610d9c565b820191906000526020600020905b815481529060010190602001808311610d7f57829003601f168201915b5050505050815250509050919050565b610db4610fe7565b600060016000815480929190610dc990611e6d565b9190505590506040518060c001604052808281526020018481526020018573ffffffffffffffffffffffffffffffffffffffff1681526020013373ffffffffffffffffffffffffffffffffffffffff1681526020014281526020018381525060046000838152602001908152602001600020600082015181600001556020820151816001019081610e5a9190611d36565b5060408201518160020160006101000a81548173ffffffffffffffffffffffffffffffffffffffff021916908373ffffffffffffffffffffffffffffffffffffffff16021790555060608201518160030160006101000a81548173ffffffffffffffffffffffffffffffffffffffff021916908373ffffffffffffffffffffffffffffffffffffffff1602179055506080820151816004015560a0820151816005019081610f089190611d36565b509050508373ffffffffffffffffffffffffffffffffffffffff16817fb7ff6cbe8f0282bf405f9ce3210be62c5620d39139a49186436e3f0fcc6a315a85604051610f539190611eb5565b60405180910390a350505050565b610f69610fe7565b600073ffffffffffffffffffffffffffffffffffffffff168173ffffffffffffffffffffffffffffffffffffffff1603610fdb5760006040517f1e4fbdf7000000000000000000000000000000000000000000000000000000008152600401610fd29190611803565b60405180910390fd5b610fe48161106e565b50565b610fef611132565b73ffffffffffffffffffffffffffffffffffffffff1661100d6109eb565b73ffffffffffffffffffffffffffffffffffffffff161461106c57611030611132565b6040517f118cdaa70000000000000000000000000000000000000000000000000000000081526004016110639190611803565b60405180910390fd5b565b60008060009054906101000a900473ffffffffffffffffffffffffffffffffffffffff169050816000806101000a81548173ffffffffffffffffffffffffffffffffffffffff021916908373ffffffffffffffffffffffffffffffffffffffff1602179055508173ffffffffffffffffffffffffffffffffffffffff168173ffffffffffffffffffffffffffffffffffffffff167f8be0079c531659141344cd1fd0a4f28419497f9722a3daafe3b4186f6b6457e060405160405180910390a35050565b600033905090565b6040518060c001604052806000815260200160608152602001600073ffffffffffffffffffffffffffffffffffffffff168152602001600073ffffffffffffffffffffffffffffffffffffffff16815260200160008152602001606081525090565b6040518060e00160405280606081526020016000815260200160008152602001600081526020016060815260200160608152602001600081525090565b6040518060400160405280600015158152602001606081525090565b6000604051905090565b600080fd5b600080fd5b600080fd5b600080fd5b6000601f19601f8301169050919050565b7f4e487b7100000000000000000000000000000000000000000000000000000000600052604160045260246000fd5b61125c82611213565b810181811067ffffffffffffffff8211171561127b5761127a611224565b5b80604052505050565b600061128e6111f5565b905061129a8282611253565b919050565b600067ffffffffffffffff8211156112ba576112b9611224565b5b6112c382611213565b9050602081019050919050565b82818337600083830152505050565b60006112f26112ed8461129f565b611284565b90508281526020810184848401111561130e5761130d61120e565b5b6113198482856112d0565b509392505050565b600082601f83011261133657611335611209565b5b81356113468482602086016112df565b91505092915050565b6000819050919050565b6113628161134f565b811461136d57600080fd5b50565b60008135905061137f81611359565b92915050565b60008060008060008060c087890312156113a2576113a16111ff565b5b600087013567ffffffffffffffff8111156113c0576113bf611204565b5b6113cc89828a01611321565b96505060206113dd89828a01611370565b95505060406113ee89828a01611370565b94505060606113ff89828a01611370565b935050608087013567ffffffffffffffff8111156114205761141f611204565b5b61142c89828a01611321565b92505060a087013567ffffffffffffffff81111561144d5761144c611204565b5b61145989828a01611321565b9150509295509295509295565b60006020828403121561147c5761147b6111ff565b5b600061148a84828501611370565b91505092915050565b60008115159050919050565b6114a881611493565b82525050565b600081519050919050565b600082825260208201905092915050565b60005b838110156114e85780820151818401526020810190506114cd565b60008484015250505050565b60006114ff826114ae565b61150981856114b9565b93506115198185602086016114ca565b61152281611213565b840191505092915050565b6000604082019050611542600083018561149f565b818103602083015261155481846114f4565b90509392505050565b600060208284031215611573576115726111ff565b5b600082013567ffffffffffffffff81111561159157611590611204565b5b61159d84828501611321565b91505092915050565b6115af8161134f565b82525050565b600060e08201905081810360008301526115cf818a6114f4565b90506115de60208301896115a6565b6115eb60408301886115a6565b6115f860608301876115a6565b818103608083015261160a81866114f4565b905081810360a083015261161e81856114f4565b905061162d60c08301846115a6565b98975050505050505050565b6116428161134f565b82525050565b600082825260208201905092915050565b6000611664826114ae565b61166e8185611648565b935061167e8185602086016114ca565b61168781611213565b840191505092915050565b600073ffffffffffffffffffffffffffffffffffffffff82169050919050565b60006116bd82611692565b9050919050565b6116cd816116b2565b82525050565b600060c0830160008301516116eb6000860182611639565b50602083015184820360208601526117038282611659565b915050604083015161171860408601826116c4565b50606083015161172b60608601826116c4565b50608083015161173e6080860182611639565b5060a083015184820360a08601526117568282611659565b9150508091505092915050565b6000602082019050818103600083015261177d81846116d3565b905092915050565b61178e816116b2565b82525050565b600060c0820190506117a960008301896115a6565b81810360208301526117bb81886114f4565b90506117ca6040830187611785565b6117d76060830186611785565b6117e460808301856115a6565b81810360a08301526117f681846114f4565b9050979650505050505050565b60006020820190506118186000830184611785565b92915050565b600060e083016000830151848203600086015261183b8282611659565b91505060208301516118506020860182611639565b5060408301516118636040860182611639565b5060608301516118766060860182611639565b506080830151848203608086015261188e8282611659565b91505060a083015184820360a08601526118a88282611659565b91505060c08301516118bd60c0860182611639565b508091505092915050565b600060208201905081810360008301526118e2818461181e565b905092915050565b6118f381611493565b81146118fe57600080fd5b50565b600081359050611910816118ea565b92915050565b60008060006060848603121561192f5761192e6111ff565b5b600061193d86828701611370565b935050602061194e86828701611901565b925050604084013567ffffffffffffffff81111561196f5761196e611204565b5b61197b86828701611321565b9150509250925092565b61198e81611493565b82525050565b60006040830160008301516119ac6000860182611985565b50602083015184820360208601526119c48282611659565b9150508091505092915050565b600060208201905081810360008301526119eb8184611994565b905092915050565b6119fc816116b2565b8114611a0757600080fd5b50565b600081359050611a19816119f3565b92915050565b600080600060608486031215611a3857611a376111ff565b5b6000611a4686828701611a0a565b935050602084013567ffffffffffffffff811115611a6757611a66611204565b5b611a7386828701611321565b925050604084013567ffffffffffffffff811115611a9457611a93611204565b5b611aa086828701611321565b9150509250925092565b600060208284031215611ac057611abf6111ff565b5b6000611ace84828501611a0a565b91505092915050565b600081905092915050565b6000611aed826114ae565b611af78185611ad7565b9350611b078185602086016114ca565b80840191505092915050565b6000611b1f8284611ae2565b915081905092915050565b7f4e487b7100000000000000000000000000000000000000000000000000000000600052602260045260246000fd5b60006002820490506001821680611b7157607f821691505b602082108103611b8457611b83611b2a565b5b50919050565b60008190508160005260206000209050919050565b60006020601f8301049050919050565b600082821b905092915050565b600060088302611bec7fffffffffffffffffffffffffffffffffffffffffffffffffffffffffffffffff82611baf565b611bf68683611baf565b95508019841693508086168417925050509392505050565b6000819050919050565b6000611c33611c2e611c298461134f565b611c0e565b61134f565b9050919050565b6000819050919050565b611c4d83611c18565b611c61611c5982611c3a565b848454611bbc565b825550505050565b600090565b611c76611c69565b611c81818484611c44565b505050565b5b81811015611ca557611c9a600082611c6e565b600181019050611c87565b5050565b601f821115611cea57611cbb81611b8a565b611cc484611b9f565b81016020851015611cd3578190505b611ce7611cdf85611b9f565b830182611c86565b50505b505050565b600082821c905092915050565b6000611d0d60001984600802611cef565b1980831691505092915050565b6000611d268383611cfc565b9150826002028217905092915050565b611d3f826114ae565b67ffffffffffffffff811115611d5857611d57611224565b5b611d628254611b59565b611d6d828285611ca9565b600060209050601f831160018114611da05760008415611d8e578287015190505b611d988582611d1a565b865550611e00565b601f198416611dae86611b8a565b60005b82811015611dd657848901518255600182019150602085019450602081019050611db1565b86831015611df35784890151611def601f891682611cfc565b8355505b6001600288020188555050505b505050505050565b6000602082019050611e1d60008301846115a6565b92915050565b6000602082019050611e38600083018461149f565b92915050565b7f4e487b7100000000000000000000000000000000000000000000000000000000600052601160045260246000fd5b6000611e788261134f565b91507fffffffffffffffffffffffffffffffffffffffffffffffffffffffffffffffff8203611eaa57611ea9611e3e565b5b600182019050919050565b60006020820190508181036000830152611ecf81846114f4565b90509291505056fea2646970667358221220425084a4110e7cdb72b3d90804c80067a8080da8ec96aa2c7c510e4ae2c211d464736f6c634300081b0033",
  "linkReferences": {},
  "deployedLinkReferences": {}
}